{
  "contractName": "Wallet",
  "abi": [
    {
      "inputs": [
        {
          "internalType": "address[]",
          "name": "_owners",
          "type": "address[]"
        },
        {
          "internalType": "uint256",
          "name": "_limit",
          "type": "uint256"
        }
      ],
      "stateMutability": "nonpayable",
      "type": "constructor"
    },
    {
      "anonymous": false,
      "inputs": [
        {
          "indexed": false,
          "internalType": "uint256",
          "name": "_id",
          "type": "uint256"
        },
        {
          "indexed": false,
          "internalType": "uint256",
          "name": "_approvals",
          "type": "uint256"
        },
        {
          "indexed": false,
          "internalType": "address",
          "name": "_approver",
          "type": "address"
        }
      ],
      "name": "ApprovalReceived",
      "type": "event"
    },
    {
      "anonymous": false,
      "inputs": [
        {
          "indexed": false,
          "internalType": "uint256",
          "name": "_id",
          "type": "uint256"
        }
      ],
      "name": "TransferApproved",
      "type": "event"
    },
    {
      "anonymous": false,
      "inputs": [
        {
          "indexed": false,
          "internalType": "uint256",
          "name": "_id",
          "type": "uint256"
        },
        {
          "indexed": false,
          "internalType": "uint256",
          "name": "_amount",
          "type": "uint256"
        },
        {
          "indexed": false,
          "internalType": "address",
          "name": "_initiator",
          "type": "address"
        },
        {
          "indexed": false,
          "internalType": "address",
          "name": "_receiver",
          "type": "address"
        }
      ],
      "name": "transferRequestsCreated",
      "type": "event"
    },
    {
      "inputs": [
        {
          "internalType": "uint256",
          "name": "",
          "type": "uint256"
        }
      ],
      "name": "owners",
      "outputs": [
        {
          "internalType": "address",
          "name": "",
          "type": "address"
        }
      ],
      "stateMutability": "view",
      "type": "function",
      "constant": true
    },
    {
      "inputs": [],
      "name": "deposit",
      "outputs": [
        {
          "internalType": "uint256",
          "name": "",
          "type": "uint256"
        }
      ],
      "stateMutability": "payable",
      "type": "function",
      "payable": true
    },
    {
      "inputs": [],
      "name": "getBalance",
      "outputs": [
        {
          "internalType": "uint256",
          "name": "",
          "type": "uint256"
        }
      ],
      "stateMutability": "view",
      "type": "function",
      "constant": true
    },
    {
      "inputs": [],
      "name": "getWalletBalance",
      "outputs": [
        {
          "internalType": "uint256",
          "name": "",
          "type": "uint256"
        }
      ],
      "stateMutability": "view",
      "type": "function",
      "constant": true
    },
    {
      "inputs": [
        {
          "internalType": "uint256",
          "name": "_amount",
          "type": "uint256"
        },
        {
          "internalType": "address payable",
          "name": "_receiver",
          "type": "address"
        }
      ],
      "name": "createTransfer",
      "outputs": [],
      "stateMutability": "nonpayable",
      "type": "function"
    },
    {
      "inputs": [
        {
          "internalType": "uint256",
          "name": "_id",
          "type": "uint256"
        }
      ],
      "name": "approve",
      "outputs": [],
      "stateMutability": "nonpayable",
      "type": "function"
    },
    {
      "inputs": [],
      "name": "getTransferRequests",
      "outputs": [
        {
          "components": [
            {
              "internalType": "uint256",
              "name": "amount",
              "type": "uint256"
            },
            {
              "internalType": "address payable",
              "name": "receiver",
              "type": "address"
            },
            {
              "internalType": "uint256",
              "name": "approvals",
              "type": "uint256"
            },
            {
              "internalType": "bool",
              "name": "hasBeenSent",
              "type": "bool"
            },
            {
              "internalType": "uint256",
              "name": "id",
              "type": "uint256"
            }
          ],
          "internalType": "struct Wallet.Transfer[]",
          "name": "",
          "type": "tuple[]"
        }
      ],
      "stateMutability": "view",
      "type": "function",
      "constant": true
    }
  ],
  "bytecode": "0x60806040523480156200001157600080fd5b5060405162001540380380620015408339818101604052810190620000379190620001dd565b81600090805190602001906200004f9291906200005f565b5080600181905550505062000377565b828054828255906000526020600020908101928215620000db579160200282015b82811115620000da5782518260006101000a81548173ffffffffffffffffffffffffffffffffffffffff021916908373ffffffffffffffffffffffffffffffffffffffff1602179055509160200191906001019062000080565b5b509050620000ea9190620000ee565b5090565b5b8082111562000109576000816000905550600101620000ef565b5090565b6000620001246200011e8462000260565b62000237565b905080838252602082019050828560208602820111156200014457600080fd5b60005b858110156200017857816200015d888262000182565b84526020840193506020830192505060018101905062000147565b5050509392505050565b600081519050620001938162000343565b92915050565b600082601f830112620001ab57600080fd5b8151620001bd8482602086016200010d565b91505092915050565b600081519050620001d7816200035d565b92915050565b60008060408385031215620001f157600080fd5b600083015167ffffffffffffffff8111156200020c57600080fd5b6200021a8582860162000199565b92505060206200022d85828601620001c6565b9150509250929050565b60006200024362000256565b9050620002518282620002cd565b919050565b6000604051905090565b600067ffffffffffffffff8211156200027e576200027d62000303565b5b602082029050602081019050919050565b60006200029c82620002a3565b9050919050565b600073ffffffffffffffffffffffffffffffffffffffff82169050919050565b6000819050919050565b620002d88262000332565b810181811067ffffffffffffffff82111715620002fa57620002f962000303565b5b80604052505050565b7f4e487b7100000000000000000000000000000000000000000000000000000000600052604160045260246000fd5b6000601f19601f8301169050919050565b6200034e816200028f565b81146200035a57600080fd5b50565b6200036881620002c3565b81146200037457600080fd5b50565b6111b980620003876000396000f3fe6080604052600436106100705760003560e01c80634c12fa471161004e5780634c12fa4714610108578063a04ef14514610131578063b759f9541461015c578063d0e30db01461018557610070565b8063025e7c271461007557806312065fe0146100b2578063329a27e7146100dd575b600080fd5b34801561008157600080fd5b5061009c60048036038101906100979190610bd2565b6101a3565b6040516100a99190610dd8565b60405180910390f35b3480156100be57600080fd5b506100c76101e2565b6040516100d49190610e75565b60405180910390f35b3480156100e957600080fd5b506100f2610201565b6040516100ff9190610e75565b60405180910390f35b34801561011457600080fd5b5061012f600480360381019061012a9190610bfb565b610248565b005b34801561013d57600080fd5b50610146610490565b6040516101539190610df3565b60405180910390f35b34801561016857600080fd5b50610183600480360381019061017e9190610bd2565b61057e565b005b61018d610b0b565b60405161019a9190610e75565b60405180910390f35b600081815481106101b357600080fd5b906000526020600020016000915054906101000a900473ffffffffffffffffffffffffffffffffffffffff1681565b60003373ffffffffffffffffffffffffffffffffffffffff1631905090565b6000600360003373ffffffffffffffffffffffffffffffffffffffff1673ffffffffffffffffffffffffffffffffffffffff16815260200190815260200160002054905090565b6000805b600080549050811015610309573373ffffffffffffffffffffffffffffffffffffffff16600082815481106102aa577f4e487b7100000000000000000000000000000000000000000000000000000000600052603260045260246000fd5b9060005260206000200160009054906101000a900473ffffffffffffffffffffffffffffffffffffffff1673ffffffffffffffffffffffffffffffffffffffff1614156102f657600191505b80806103019061103c565b91505061024c565b506001151581151514610351576040517f08c379a000000000000000000000000000000000000000000000000000000000815260040161034890610e15565b60405180910390fd5b7f3950b1ae3ceea48e4e80ea60e6dce9d14ab2c559390fce92ece970c55d0e2a6b60048054905084338560405161038b9493929190610ec7565b60405180910390a160046040518060a001604052808581526020018473ffffffffffffffffffffffffffffffffffffffff1681526020016000815260200160001515815260200160048054905081525090806001815401808255809150506001900390600052602060002090600502016000909190919091506000820151816000015560208201518160010160006101000a81548173ffffffffffffffffffffffffffffffffffffffff021916908373ffffffffffffffffffffffffffffffffffffffff1602179055506040820151816002015560608201518160030160006101000a81548160ff021916908315150217905550608082015181600401555050505050565b60606004805480602002602001604051908101604052809291908181526020016000905b8282101561057557838290600052602060002090600502016040518060a0016040529081600082015481526020016001820160009054906101000a900473ffffffffffffffffffffffffffffffffffffffff1673ffffffffffffffffffffffffffffffffffffffff1673ffffffffffffffffffffffffffffffffffffffff168152602001600282015481526020016003820160009054906101000a900460ff16151515158152602001600482015481525050815260200190600101906104b4565b50505050905090565b6000805b60008054905081101561063f573373ffffffffffffffffffffffffffffffffffffffff16600082815481106105e0577f4e487b7100000000000000000000000000000000000000000000000000000000600052603260045260246000fd5b9060005260206000200160009054906101000a900473ffffffffffffffffffffffffffffffffffffffff1673ffffffffffffffffffffffffffffffffffffffff16141561062c57600191505b80806106379061103c565b915050610582565b506001151581151514610687576040517f08c379a000000000000000000000000000000000000000000000000000000000815260040161067e90610e15565b60405180910390fd5b60001515600260003373ffffffffffffffffffffffffffffffffffffffff1673ffffffffffffffffffffffffffffffffffffffff168152602001908152602001600020600084815260200190815260200160002060009054906101000a900460ff1615151461072b576040517f08c379a000000000000000000000000000000000000000000000000000000000815260040161072290610e55565b60405180910390fd5b6000151560048381548110610769577f4e487b7100000000000000000000000000000000000000000000000000000000600052603260045260246000fd5b906000526020600020906005020160030160009054906101000a900460ff161515146107ca576040517f08c379a00000000000000000000000000000000000000000000000000000000081526004016107c190610e35565b60405180910390fd5b6001600260003373ffffffffffffffffffffffffffffffffffffffff1673ffffffffffffffffffffffffffffffffffffffff168152602001908152602001600020600084815260200190815260200160002060006101000a81548160ff0219169083151502179055506004828154811061086d577f4e487b7100000000000000000000000000000000000000000000000000000000600052603260045260246000fd5b9060005260206000209060050201600201600081548092919061088f9061103c565b91905055507ffec9d12d15ee8c8b836a58347cb0d4980db38411bcd0b83662cee48fb20b6dee82600484815481106108f0577f4e487b7100000000000000000000000000000000000000000000000000000000600052603260045260246000fd5b9060005260206000209060050201600201543360405161091293929190610e90565b60405180910390a160015460048381548110610957577f4e487b7100000000000000000000000000000000000000000000000000000000600052603260045260246000fd5b90600052602060002090600502016002015410610b07576001600483815481106109aa577f4e487b7100000000000000000000000000000000000000000000000000000000600052603260045260246000fd5b906000526020600020906005020160030160006101000a81548160ff02191690831515021790555060048281548110610a0c577f4e487b7100000000000000000000000000000000000000000000000000000000600052603260045260246000fd5b906000526020600020906005020160010160009054906101000a900473ffffffffffffffffffffffffffffffffffffffff1673ffffffffffffffffffffffffffffffffffffffff166108fc60048481548110610a91577f4e487b7100000000000000000000000000000000000000000000000000000000600052603260045260246000fd5b9060005260206000209060050201600001549081150290604051600060405180830381858888f19350505050158015610ace573d6000803e3d6000fd5b507fd9bbf1d8bef570b7e92ef1ba025425fc15915ae01f3d3be144cdc8be05442eb582604051610afe9190610e75565b60405180910390a15b5050565b600034600360003373ffffffffffffffffffffffffffffffffffffffff1673ffffffffffffffffffffffffffffffffffffffff1681526020019081526020016000206000828254610b5c9190610f56565b92505081905550600360003373ffffffffffffffffffffffffffffffffffffffff1673ffffffffffffffffffffffffffffffffffffffff16815260200190815260200160002054905090565b600081359050610bb781611155565b92915050565b600081359050610bcc8161116c565b92915050565b600060208284031215610be457600080fd5b6000610bf284828501610bbd565b91505092915050565b60008060408385031215610c0e57600080fd5b6000610c1c85828601610bbd565b9250506020610c2d85828601610ba8565b9150509250929050565b6000610c438383610d52565b60a08301905092915050565b610c5881611006565b82525050565b610c6781610fbe565b82525050565b610c7681610fac565b82525050565b6000610c8782610f1c565b610c918185610f34565b9350610c9c83610f0c565b8060005b83811015610ccd578151610cb48882610c37565b9750610cbf83610f27565b925050600181019050610ca0565b5085935050505092915050565b610ce381610fd0565b82525050565b6000610cf6600c83610f45565b9150610d01826110b4565b602082019050919050565b6000610d19602383610f45565b9150610d24826110dd565b604082019050919050565b6000610d3c601183610f45565b9150610d478261112c565b602082019050919050565b60a082016000820151610d686000850182610dba565b506020820151610d7b6020850182610c5e565b506040820151610d8e6040850182610dba565b506060820151610da16060850182610cda565b506080820151610db46080850182610dba565b50505050565b610dc381610ffc565b82525050565b610dd281610ffc565b82525050565b6000602082019050610ded6000830184610c6d565b92915050565b60006020820190508181036000830152610e0d8184610c7c565b905092915050565b60006020820190508181036000830152610e2e81610ce9565b9050919050565b60006020820190508181036000830152610e4e81610d0c565b9050919050565b60006020820190508181036000830152610e6e81610d2f565b9050919050565b6000602082019050610e8a6000830184610dc9565b92915050565b6000606082019050610ea56000830186610dc9565b610eb26020830185610dc9565b610ebf6040830184610c6d565b949350505050565b6000608082019050610edc6000830187610dc9565b610ee96020830186610dc9565b610ef66040830185610c6d565b610f036060830184610c4f565b95945050505050565b6000819050602082019050919050565b600081519050919050565b6000602082019050919050565b600082825260208201905092915050565b600082825260208201905092915050565b6000610f6182610ffc565b9150610f6c83610ffc565b9250827fffffffffffffffffffffffffffffffffffffffffffffffffffffffffffffffff03821115610fa157610fa0611085565b5b828201905092915050565b6000610fb782610fdc565b9050919050565b6000610fc982610fdc565b9050919050565b60008115159050919050565b600073ffffffffffffffffffffffffffffffffffffffff82169050919050565b6000819050919050565b600061101182611018565b9050919050565b60006110238261102a565b9050919050565b600061103582610fdc565b9050919050565b600061104782610ffc565b91507fffffffffffffffffffffffffffffffffffffffffffffffffffffffffffffffff82141561107a57611079611085565b5b600182019050919050565b7f4e487b7100000000000000000000000000000000000000000000000000000000600052601160045260246000fd5b7f4e6f7420616e206f776e65720000000000000000000000000000000000000000600082015250565b7f63616e6e6f7420766f746520666f7220636f6d706c65746564207472616e736660008201527f6572730000000000000000000000000000000000000000000000000000000000602082015250565b7f63616e6e6f7420766f7465207477696365000000000000000000000000000000600082015250565b61115e81610fbe565b811461116957600080fd5b50565b61117581610ffc565b811461118057600080fd5b5056fea264697066735822122009593fd8a72ae43f56503a7680e0f2737e3949dc56aa634ffa89af2820c7aa0664736f6c63430008030033",
  "immutableReferences": {},
  "source": "// SPDX-License-Identifier: GPL-3.0\r\npragma solidity 0.8.3;\r\npragma abicoder v2;\r\n\r\n// Philip/Intructor code\r\n// https://github.com/filipmartinsson/solidity-0.7.5\r\n\r\ncontract Wallet {\r\n    \r\n    address[] public owners;\r\n    uint limit;\r\n    \r\n    mapping(address => mapping(uint => bool)) approvals;\r\n    mapping(address => uint) balance;\r\n    \r\n    struct Transfer{\r\n        uint amount;\r\n        address payable receiver;\r\n        uint approvals;\r\n        bool hasBeenSent;\r\n        uint id;\r\n    }\r\n    \r\n    // ownly users in owners list cn approve and execute Transfers       \r\n   modifier onlyOwners() {\r\n       bool owner = false;\r\n       for(uint i = 0; i < owners.length; i++) {\r\n           if(owners[i] == msg.sender) {\r\n               owner = true;\r\n           }\r\n       }\r\n       require(owner == true, \"Not an owner\");\r\n       _;\r\n   }\r\n   \r\n   event transferRequestsCreated(uint _id, uint _amount, address _initiator, address _receiver);\r\n   event ApprovalReceived(uint _id, uint _approvals, address _approver);\r\n   event TransferApproved(uint _id);\r\n    \r\n    \r\n    Transfer[] transferRequests;\r\n    \r\n    // initialize owners list and the number of confirmations required to authorize transfer requests\r\n    constructor(address[] memory _owners, uint _limit) {\r\n        owners = _owners;\r\n        limit = _limit;\r\n    }\r\n    \r\n    // [\"0xdc6bbc41d7ff0accd096969921067c07cd3b0d37\", \"0xe8b2ef888b7059907fe4eeed19892aac95c7e961\", \"0x4B20993Bc481177ec7E8f571ceCaE8A9e22C02db\"]\r\n    \r\n    // limit 2 votes \r\n    // 6000000000000000000 wei (18 zeros)\r\n    \r\n    //----------------transfers--------------------------\r\n    \r\n    function deposit() public payable returns(uint) {\r\n        balance[msg.sender] += msg.value;\r\n        return balance[msg.sender];\r\n    }\r\n    \r\n    function getBalance() public view returns(uint) {\r\n        return (msg.sender).balance;\r\n    }\r\n    \r\n    function getWalletBalance() public view returns(uint) {\r\n        return balance[msg.sender];\r\n        \r\n    }\r\n    \r\n    // create an instance of the transfer struct and add it to the transferRequests array\r\n    function createTransfer(uint _amount, address payable _receiver) public onlyOwners {\r\n        emit transferRequestsCreated(transferRequests.length, _amount, msg.sender, _receiver);\r\n        transferRequests.push(\r\n            Transfer(_amount, _receiver, 0, false, transferRequests.length)\r\n        );\r\n        \r\n    }\r\n    \r\n    //----------------approve--------------------------   \r\n    \r\n    // set approval for one of the transfer requests\r\n    // update Transfer Object\r\n    // update mapping and record the aproval for msg.sender\r\n    // once min amount of approvals are met, send amount to recipient\r\n    // owners cannot vote twice\r\n    // owners cannot vote for completed transfers \r\n    \r\n     // approve which transaction - 0,1,2,...etc\r\n    function approve(uint _id) public onlyOwners {\r\n        require(approvals[msg.sender][_id] == false, \"cannot vote twice\");\r\n        require(transferRequests[_id].hasBeenSent == false, \"cannot vote for completed transfers\");\r\n        \r\n        approvals[msg.sender][_id] = true;\r\n        transferRequests[_id].approvals++;\r\n        \r\n        emit ApprovalReceived(_id, transferRequests[_id].approvals, msg.sender);\r\n        \r\n        if(transferRequests[_id].approvals >= limit) {\r\n            transferRequests[_id].hasBeenSent = true;\r\n            transferRequests[_id].receiver.transfer( transferRequests[_id].amount);\r\n            emit TransferApproved(_id);\r\n        }\r\n        \r\n    }\r\n    \r\n     function getTransferRequests() public view returns(Transfer[] memory) {\r\n        //return transferRequests[_address].amount;\r\n        return transferRequests;\r\n    }\r\n    \r\n\r\n}\r\n\r\n",
  "sourcePath": "C:/Users/benX/Documents/ethereum_course_advanced/multisigWallet/contracts/multiSigW.sol",
  "compiler": {
    "name": "solc",
    "version": "0.8.3+commit.8d00100c.Emscripten.clang"
  },
  "schemaVersion": "3.3.4",
  "updatedAt": "2021-04-07T02:07:35.459Z",
  "networkType": "ethereum",
  "devdoc": {
    "kind": "dev",
    "methods": {},
    "version": 1
  },
  "userdoc": {
    "kind": "user",
    "methods": {},
    "version": 1
  }
}